:020000040800F2
:10000000A01700209D0100083D2E0008C51C000817
:100010000927000821160008C13D00080000000063
:10002000000000000000000000000000A1300008F7
:100030005916000800000000F52E00086935000878
:10004000B7010008B7010008B7010008B7010008B0
:10005000B7010008B7010008B7010008B7010008A0
:10006000B7010008B7010008B7010008B701000890
:10007000B7010008B7010008B7010008B701000880
:10008000B7010008B7010008B7010008B701000870
:10009000B7010008B7010008B7010008B701000860
:1000A000B7010008B7010008B7010008B701000850
:1000B000B7010008D5350008B7010008B7010008EE
:1000C000B7010008B7010008B7010008B701000830
:1000D000B7010008A5390008DD3900082D3A0008ED
:1000E000B7010008B7010008B7010008B701000810
:1000F000B7010008B7010008B7010008B701000800
:10010000B7010008B7010008B7010008B7010008EF
:10011000B701000835390008B70100087936000832
:10012000B7010008B7010008B7010008B7010008CF
:10013000B7010008B7010008B7010008B7010008BF
:10014000B7010008B7010008B7010008B7010008AF
:10015000B7010008B7010008B7010008B70100089F
:10016000B7010008B7010008B7010008B70100088F
:10017000B7010008B7010008B7010008B70100087F
:10018000B7010008B7010008DFF80CD000F060FBF1
:1001900000480047F1470008A017002006488047A4
:1001A00006480047FEE7FEE7FEE7FEE7FEE7FEE75C
:1001B000FEE7FEE7FEE7FEE76D350008890100086F
:1001C000D2B201E000F8012B491EFBD27047002299
:1001D000F6E710B513460A4604461946FFF7F0FF46
:1001E000204610BD421E12F8013F002BFBD111F832
:1001F000013B02F8013B002BF9D1704730B50546B1
:100200002A460B4612F8010B13F8014B08B1A04225
:10021000F8D01CB1002802D06D1CF1E7284630BD93
:100220002DE9FE4F804681EA0300C00F0C46009086
:1002300021F0004123F00045B8EB0200A94105D2AE
:100240004046214690461C460B46024623F000409D
:10025000104347D0270DC7F30A00C3F30A51029099
:10026000401A019040286BDAC3F3130040F4801B5E
:100270000098924620B10023D2EB030A63EB0B0BEC
:1002800001985946C0F14002504600F004FA064673
:100290000D4650465946019A00F01CFA10EB080032
:1002A0006141002487EA115284EAE7731A4340D07F
:1002B000009A62B3019A012A4FEA075215DC001B2B
:1002C00061EB02014FF0004202EA0752CDE9004221
:1002D000001C41F5801132462B4600F053FA03B062
:1002E000BDE8F08F40462146F9E7001B61EB0201B3
:1002F000001C41F5801300185B412018A2F500177F
:1003000047EB030140EAD570B6196D4111E06D0865
:100310004FEA360645EAC0754FEA0752001B61EB0B
:100320000201001C41F5801149084FEA3000001914
:10033000514132462B4603B0BDE8F04F00F013BAEE
:100340000098012240000023D0EB020263EBE0732F
:10035000009821464FEAE074B8EB000061EB04011D
:10036000E9E783F000435BE781F0004158E72DE9BE
:10037000FE4F81EA030404F0004421F000410094A0
:100380004FF0000B23F0004350EA01045ED052EA24
:1003900003045BD0C3F30A54C1F30A552C44A4F2FE
:1003A000F3340194A0FB0254C1F3130141F4801112
:1003B000C3F3130343F4801301FB024400FB034E19
:1003C000840A970A44EA815447EA8357A4FB0768E2
:1003D00002958D0A05FB07854FEA932C04FB0C540C
:1003E0002705029D4FEA065847EA1637B5EB080580
:1003F0006EEB070C870E920E47EA811742EA8312D2
:10040000A7FB0201B6EB0B0164EB00042B0D43EAE2
:100410000C335E1844EB1C50DA465146E7FB0201F0
:10042000C5F313044FEA0B3343EA14534FEA043283
:10043000019C43EA0603A4F10C040294009CCDE95C
:1004400000B400F09FF903B0BDE8F08F0020014632
:10045000F9E72DE9F04D81EA030404F0004B21F0A7
:10046000004514464FF0000A23F0004150EA05020F
:1004700020D054EA01021DD0C5F30A570246C5F345
:100480001303C1F31300C1F30A5640F4801543F47B
:100490008013A7EB0608101BD64608F2FD3873EB55
:1004A000050002D308F1010801E092185B41B8F1A0
:1004B000000F03DA00200146BDE8F08D00204FF464
:1004C0008011064684460EE0171B73EB050705D323
:1004D000121B63EB050306434CEA010C49084FEA83
:1004E000300092185B4150EA0107EDD152EA030057
:1004F00012D082EA040083EA0501084305D0101BEC
:10050000AB4106D20122002306E000224FF0004357
:1005100002E06FF0010253101AEB06004CEB085199
:1005200010EB0A0041EB0B01BDE8F04D00F01BB9E8
:100530000EB540F2334102910021CDE900110A4687
:100540000B4600F01FF903B000BD00F0004230F090
:1005500000400AD0C10D01F56071C0F3160042EAF7
:100560000151C208400711437047002001467047FF
:1005700030B5041E71F1000404DB4FF0004440422A
:1005800064EB0101141E73F1000405DB1C464FF0FF
:100590000043524263EB04038B4208BF824230BDEA
:1005A00030B5041E71F1000404DB4FF000444042FA
:1005B00064EB0101141E73F1000405DB1C464FF0CF
:1005C0000043524263EB0403994208BF904230BD9E
:1005D00001F0004330B421F0004150EA010206D09E
:1005E0000A0DA2F56072C1F31301002A02DC30BCCF
:1005F00000207047440F44EAC104C100E01830BC39
:1006000000EBC25000F078B830B50B460146002030
:100610002022012409E021FA02F59D4205D303FAC4
:1006200002F5491B04FA02F52844151EA2F1010245
:10063000F1DC30BD2DE9F05F0546002092469B4677
:1006400088460646814640241BE0284641464746E8
:10065000224600F02FF853465A46C01A914110D353
:1006600011461846224600F016F82D1A67EB0108CD
:100670004F4622460120002100F00DF817EB00093B
:100680004E41201EA4F10104DFDC484631462A46D3
:100690004346BDE8F09F202A04DB203A00FA02F12D
:1006A000002070479140C2F1200320FA03F3194360
:1006B00090407047202A04DB203A21FA02F0002102
:1006C000704721FA02F3D040C2F120029140084362
:1006D00019467047202A06DBCB17203A41FA02F070
:1006E00043EAE07306E041FA02F3D040C2F120028F
:1006F00091400843194670470029A8BF7047401C25
:10070000490008BF20F00100704710B4B0FA80FC27
:1007100000FA0CF050EA010404BF10BC704749B164
:10072000CCF1200421FA04F411FA0CF118BF0121D4
:1007300021430843A3EB0C01CB1D4FEA00614FEAB4
:10074000102042BF002010BC704700EBC350104483
:100750000029A4BF10BC7047401C490008BF20F00E
:10076000010010BC704710B5141E73F1000408DAC4
:10077000401C41F1000192185B411A4301D120F065
:10078000010010BD2DE9F04D92469B4611B1B1FA22
:1007900081F202E0B0FA80F220329046FFF77BFF50
:1007A00004460F4640EA0A0041EA0B0153465A4606
:1007B000084313D0114653EA010019D0C8F1400292
:1007C0005046FFF777FF05460E46504659464246CB
:1007D000FFF761FF084305D0012004E020463946B9
:1007E000BDE8F08D0020054346EAE0762C43374310
:1007F0000A986305E40AA0EB08000022FD0A44EA17
:1008000047540A3002D500200146E9E701051019D6
:100810006941DDE9084500196941BDE8F04DA2E7ED
:10082000C1F30A52C1F3130140F2FF3341F48011C6
:100830009A4202DA00200146704740F233439A425E
:10084000A2F2334202DC5242FFF734BFFFF723BF6C
:10085000064C074D06E0E06840F0010394E807000D
:1008600098471034AC42F6D3FFF792FC5C70000856
:100870007C70000800B58DB00121052002F03CFB22
:100880000121080202F078FB40200B9003208DF834
:10089000300000208DF833000BA9214801F05DF8ED
:1008A0000D200B9003208DF8300000208DF83300D0
:1008B0000BA91C4801F051F80121080202F06CFB61
:1008C00000214FF4807002F067FB012000F0ECF88B
:1008D000002007900A9009904FF48030089007A8F4
:1008E00000F030F80020019001208DF80800002071
:1008F0008DF809000390059001208DF8180001A9DA
:10090000094800F045F8072301221121064800F0AC
:1009100069F80121044800F009F80DB000BD00009D
:1009200000000240000802400020014021B182681E
:1009300042F00102826003E0826822F001028260DC
:10094000704700000021084A1168084A1140D0E9A8
:1009500000231A4383681A43C3681A431143044AA5
:10096000C2F804137047000004230140E030FCFF8C
:10097000002001400146C86C80B27047024600204A
:1009800013680B400BB1012000E00020704700000D
:1009900030B50246002000235068104C20400D79ED
:1009A0000C6844EA05242043506090680C4C2040B9
:1009B000D1E903542C438D682C434D7944EA450416
:1009C00020439060D06A20F470000C7D641EE4B275
:1009D000234340EA0350D06230BD0000FFFEFFFC1D
:1009E000FDF7FFC0F0B504460D4600200021092D9B
:1009F00011DDE068A5F10A0606EB4607072606FAB0
:100A000007F18843A5F10A0606EB460603FA06F14C
:100A10000843E0600CE0206905EB4507072606FA6D
:100A200007F1884305EB450603FA06F10843206108
:100A3000072A0FDA606B561E06EB86071F2606FA9A
:100A400007F18843561E06EB860605FA06F10843B1
:100A5000606322E00D2A0FDA206BD61F06EB8607B3
:100A60001F2606FA07F18843D61F06EB860605FA0D
:100A700006F10843206310E0E06AA2F10D0606EBE0
:100A800086071F2606FA07F18843A2F10D0606EB3A
:100A9000860605FA06F10843E062F0BD816841F080
:100AA000804181607047000038B10849096841F40D
:100AB0000001074AC2F8041306E00449096821F45A
:100AC0000001034AC2F804137047000004230140E8
:100AD0000020014070B505460C464FF480711B485C
:100AE000FFF775FB4FF480711948FFF770FB19A2EF
:100AF00020A1164803F076F9144803F04DF9C820F8
:100B000003F000FE224622A1114803F06BF91048C1
:100B100003F042F9C82003F0F5FD1A21224803F042
:100B200024F922A12548FFF769FB2549086005E063
:100B30001EA12248FFF762FB214908602048006897
:100B40000028F5D000F06EFD70BD0000CE0300203F
:100B5000CE0400202F61316F5876335969423377C4
:100B60002F57415445522F757365722F757064610C
:100B70007465000041542B514D545055423D302C6A
:100B8000302C302C302C222573220D0A000000005E
:100B90007B706172616D733A7B225048223A2573F3
:100BA0007D7D0D0A00000000004400402B514D5493
:100BB0005055423A20302C302C3000009810002044
:100BC0008800002070B506460C4615464FF480712B
:100BD0001B48FFF7FCFA4FF480711A48FFF7F7FA49
:100BE00019A221A1164803F0FDF8154803F0D4F826
:100BF000C82003F087FD23462A4622A1114803F0AE
:100C0000F1F8104803F0C8F8C82003F07BFD1A2162
:100C1000224803F0AAF822A12548FFF7EFFA254958
:100C2000086005E01EA12248FFF7E8FA21490860A4
:100C3000204800680028F5D000F0F4FC70BD0000EA
:100C4000CE030020CE0400202F61316F5876335937
:100C5000694233772F57415445522F757365722F70
:100C6000757064617465000041542B514D545055AA
:100C7000423D302C302C302C302C222573220D0A92
:100C8000000000007B706172616D733A7B222573F6
:100C9000223A25737D7D0D0A0000000000440040CB
:100CA0002B514D545055423A20302C302C300000FE
:100CB0009810002088000020F8B507460C4615461D
:100CC0001E464FF480711C48FFF781FA4FF4807183
:100CD0001A48FFF77CFA1AA221A1174803F082F8FC
:100CE000154803F059F8C82003F00CFD2B462246A6
:100CF00022491248009603F075F8104803F04CF8AA
:100D0000C82003F0FFFC1A211D4803F02EF81DA196
:100D10002048FFF773FA2049086005E019A11D4833
:100D2000FFF76CFA1C4908601B4800680028F5D0E2
:100D300000F078FCF8BD0000CE030020CE040020B7
:100D40002F61316F58763359694233772F574154A9
:100D500045522F757365722F75706461746500005C
:100D600041542B514D545055423D302C302C302C99
:100D7000302C222573220D0A00000000107000089C
:100D8000004400402B514D545055423A20302C30F5
:100D90002C300000981000208800002010B500249E
:100DA00000209249086092A003F00CF895A002F090
:100DB000F3FF4FF4967003F0A5FC944994A003F060
:100DC00001F895A002F0FEFF97A19048FFF716FAF0
:100DD0009649086000F026FC11E095A002F0F2FFB1
:100DE00000F020FC99A002F0D7FF4FF4967003F0BA
:100DF00089FC8DA18548FFF701FA8C4908608B4872
:100E000000680028E9D093A002F0C6FF4FF4967066
:100E100003F078FC84A17D48FFF7F0F9834908606E
:100E200000F000FC8EA002F0B7FF4FF4967003F0C4
:100E300069FC7DA17548FFF7E1F97C490860084627
:100E4000006848B1714989A002F0BCFF00F0EAFBDC
:100E50004FF4967003F056FC8CA002F09DFF4FF407
:100E6000967003F04FFC8CA16848FFF7C7F96F49F3
:100E700008600846006850B9644989A002F0A2FFE2
:100E800000F0D0FB4FF4967003F03CFC0CE0012026
:100E9000564908605D4987A002F094FF00F0C2FB4C
:100EA0004FF4967003F02EFC86A002F075FF4FF40D
:100EB000967003F027FC5CA15448FFF79FF95B494B
:100EC000086000F0AFFB5948006840B100F0AAFB91
:100ED00080A002F077FF4FF4967003F013FC81A01E
:100EE00002F05AFF4FF4967003F00CFC80A14748C3
:100EF000FFF784F94D49086000F094FB002416E0E8
:100F0000641C00F08FFB77A002F046FF4FF4967050
:100F100003F0F8FB76A13D48FFF770F943490860FC
:100F2000642C04DD012031490860002403E03F48BF
:100F300000680028E4D000BF70A002F02DFF4FF43D
:100F4000967003F0DFFB70A13048FFF757F937497F
:100F500008600846006848B12C496DA002F032FFD5
:100F600000F060FB4FF4967003F0CCFB6CA002F035
:100F700013FF4FF4967003F0C5FB6CA12348FFF7F5
:100F80003DF92A4908606CA12048FFF737F96D49FF
:100F9000086000F047FB00241CE0641C00F042FBEA
:100FA0005FA002F0F9FE4FF4967003F0ABFB5FA177
:100FB0001648FFF723F91D4908605FA11348FFF7A2
:100FC0001DF960490860642C04DD012007490860B0
:100FD000002406E01548006818B95A48006800283F
:100FE000DBD000BF0148006810BD00009000002069
:100FF000737461727420696E697420626332380D93
:101000000A000000415445310D0A000098100020EC
:1010100025730D0A00000000676574206261636B30
:1010200020626332380D0A004F4B00008800002018
:101030000D0AB5A5C6ACBBFAD5FDD4DAC1ACBDD39B
:10104000B5BDC4A3BFE92E2E2E0D0A0041540D0AD2
:101050000000000041542B434D45453D310D0A0031
:1010600041542B4E42414E443F0D0A003D3D3D3D13
:101070003D3D3D3D2042414E443D3D3D3D3D3D3D9C
:101080003D3D200D0A202573200D0A0041542B43BD
:10109000494D490D0A0000004552524F52000000D0
:1010A000CED2B5C4BFA8BAC5CAC7203A202573207E
:1010B0000D0A0000BFA8B4EDCEF3203A202573201E
:1010C0000D0A000041542B43474154543D310D0A51
:1010D00000000000696E697420504450204F4B0D91
:1010E0000A00000041542B43474154543F0D0A006D
:1010F0002B43474154543A310000000041542B43E4
:1011000053510D0A000000002B4353510000000012
:10111000D0C5BAC5D6CAC1BF3A25730D0A000000B2
:1011200041542B43455245473F0D0A002B4345523E
:1011300045473A302C3100002B43455245473A3160
:101140002C3100008C00002010B5002438A002F0E3
:1011500023FE4FF4967003F0D5FA3EA002F01CFE79
:101160004FF4967003F0CEFA3EA002F015FE4FF455
:10117000967003F0C7FA3EA14048FFF73FF8404998
:10118000086000F04FFA13E0641C00F04BFA35A041
:1011900002F002FE4FF4967003F0B4FA39A137481A
:1011A000FFF72CF836490860642C01DD002403E0C9
:1011B000334800680028E7D000BF35A002F0ECFDFE
:1011C0004FF4967003F09EFA34A12C48FFF716F8FE
:1011D0002B49086034A12948FFF710F83549086009
:1011E00000F020FA002419E0641C00F01BFA28A08B
:1011F00002F0D2FD4FF4967003F084FA27A11F4845
:10120000FEF7FCFF1E49086027A11C48FEF7F6FF09
:1012100028490860642C01DD002406E018480068B5
:1012200018B9244800680028DED000BF10BD0000B7
:1012300041542B434744434F4E543D312C22495097
:10124000222C224855415745492E434F4D220D0A25
:101250000000000041542B43474154543D310D0AD6
:101260000000000041542B43474154543F0D0A00F5
:10127000202B43474154543A31000000981000207D
:10128000880000202B43474154543A3100000000AD
:1012900041542B4353434F4E3F0D0A002B435343BE
:1012A0004F4E3A302C3100002B4353434F4E3A30CF
:1012B0002C3000008C00002030B587B0002577A0CE
:1012C00002F06AFD4FF4967003F01CFA00F0AAF9E0
:1012D00076A002F061FD4FF4967003F013FA00F06F
:1012E000A1F94FF480717548FEF771FF74A07DA3DA
:1012F0007EA281A10090714802F074FD6F4988A020
:1013000002F060FD6D4802F047FD4FF4967003F067
:10131000F9F987A18748FEF771FF8749086005E062
:1013200083A18448FEF76AFF834908608248006809
:101330000028F5D000F076F980A002F02DFD4FF4E2
:10134000967003F0DFF98CA17A48FEF757FF7A49CF
:1013500008601EE06D1C4FF4FA7003F0D3F986A10B
:101360007448FEF74BFF74490860642D11DD80213D
:10137000854800F05FFB4FF4FA7003F0C3F9802159
:10138000814800F055FB4FF4967003F0BBF901F073
:101390009DFD694800680028DCD000F043F97BA07F
:1013A00002F0FAFC4FF4967003F0ACF97AA16148B0
:1013B000FEF724FF6049086005E077A15D48FEF76D
:1013C0001DFF5D4908605C4800680028F5D00024D6
:1013D00007E059480168E01D085C02A90855601C37
:1013E000C4B20F2CF5DB00208DF8170000F01AF9BD
:1013F00002A96BA002F0E6FC4FF480712F48FEF7C3
:10140000E6FE38A26BA12D4802F0ECFC2B4944A06B
:1014100002F0D8FC294802F0BFFC4FF4967003F0AC
:1014200071F969A14348FEF7E9FE4349086005E008
:1014300065A14048FEF7E2FE3F4908603E4800686B
:101440000028F5D000F0EEF84FF480711B48FEF74D
:10145000BEFE61A267A1194802F0C4FC174930A082
:1014600002F0B0FC154802F097FC4FF4967003F0C0
:1014700049F966A12F48FEF7C1FE2F49086005E033
:1014800062A12C48FEF7BAFE2B4908602A48006882
:101490000028F5D000F0C6F807B030BD41542B51FC
:1014A0004D54444953433D300D0A000041542B51E3
:1014B0004D54434C4F53453D300D0A00CE030020A0
:1014C000356630326261643266623237633361336B
:1014D00031373033313431313039633032363632AE
:1014E00000000000574154455200000061316F5820
:1014F000763359694233770041542B514D5443465A
:10150000473D22414C4941555448222C302C22253C
:1015100073222C222573222C222573220D0A00000F
:101520006174737472203D202573200D0A00000041
:101530004F4B0000981000208800002041542B5190
:101540004D544F50454E3D302C22696F742D6173C0
:101550002D6D7174742E636E2D7368616E67686192
:10156000692E616C6979756E63732E636F6D222CC1
:10157000313838330D0A00002B514D544F50454E31
:101580003A20302C300000000008024041542B4328
:1015900047534E3D310D0A002B4347534E3A00004E
:1015A000CED2B5C4C4A3BFE9494D4549CAC73A25FF
:1015B000730D0A0041542B514D54434F4E4E3D3054
:1015C0002C222573220D0A002B514D54434F4E4EB1
:1015D0003A20302C302C30002F61316F587633593F
:1015E000694233772F57415445522F757365722FD7
:1015F0006765740041542B514D545355423D302C76
:10160000312C222573222C30200D0A002B514D54F1
:101610005355423A20302C312C302C310000000040
:1016200000BFFEE710B5094909A002F0CBFB4FF45B
:10163000967003F067F800200449C1F804014FF4E4
:1016400080710248FEF7C3FD10BD00009810002015
:1016500025730D0A000000007047000010B52DED45
:10166000088B5E480088FEF763FF41EC190B0A21E6
:10167000084600F019FA00EE100AB8EE400A10EE23
:10168000104A2046FEF761FF41EC1B0B9FED540B07
:1016900053EC102BFEF76BFE41EC1A0B53EC192B9D
:1016A000FEF7D7FE41EC180BFEF792FF4E4908609B
:1016B000084690ED000ADFED4D0A20EE200A10EEFC
:1016C000101A0846FEF741FF41EC1A0B9FED480B3C
:1016D00053EC102BFEF7BDFE41EC190B9FED460BB2
:1016E00053EC102BFEF7B5FE41EC180BFEF770FF24
:1016F00043490860084690ED000A4248D0ED000AD0
:1017000020EE200A404880ED000A0068FEF71DFF29
:1017100041EC180B9FED3D0B53EC102BFEF740FFF7
:1017200006D23C4890ED000A364880ED000A12E0EF
:1017300035480068FEF709FF41EC180B9FED330BAD
:1017400053EC102BFEF714FF05D8334890ED000A38
:101750002C4880ED000A2A4890ED000A2948D0ED77
:10176000000A20EE200A2D4880ED000A2C4890ED5A
:10177000000AF2EE040A80EE201A11EE104A20460A
:10178000FEF7E3FE41EC1B0B9FED260B53EC102BF9
:10179000FEF7E7FD41EC1A0B9FED240B53EC102BE9
:1017A000FEF7E5FD41EC190B9FED220B53EC102BDE
:1017B000FEF736FD41EC180BFEF70AFF1F490860E3
:1017C000164890ED000A0846D0ED000A80EE201A77
:1017D000124880ED001ABDEC088B10BD24000020DB
:1017E0005C8FC2F5285CF33F3800002000007A448B
:1017F0000000000000A089400000000000006940D7
:101800003C000020400000204C00002000000000B0
:10181000000000404800002044000020500000204C
:101820002000002000000000000039408B6CE7FB26
:10183000A9F1923F000000000000F03F540000209A
:1018400051B18200A2F1C042126842F0010382004D
:10185000A2F1C042136009E08200A2F1C042126806
:10186000034B1A408300A3F1C0431A607047000085
:10187000FEFF0F00D0E901121143C2681143026953
:1018800011434269114382691143C2691143026ADB
:101890001143426A1143826A1143C26A1143026BC7
:1018A000114302689200A2F1C042116081680829C8
:1018B0000BD101688900A1F1C041096841F04002E3
:1018C00001688900A1F1C0410A60416B0968426B5F
:1018D000526841EA0211426B926841EA0221426B6E
:1018E000928941EA0241426B128A41EA0251426BFB
:1018F000127D41EA0261426B926911430268521CF7
:101900009200A2F1C0421160C16AB1F5804F1BD1B3
:10191000816B0968826B526841EA0211826B92689E
:1019200041EA0221826B128A41EA0251826B127DE6
:1019300041EA0261826B9269114302689200A2F14E
:10194000C042C2F8041107E06FF0704201688900DC
:10195000A1F1C041C1F804217047F0B50A46002149
:101960000023002400BF3DE0012505FA01F31568BE
:1019700005EA03049C4234D105684F000326BE40AB
:10198000B543056015794E00B540066835430560DE
:101990001579012D02D01579022D16D185684F00D9
:1019A0000326BE40B543856055794E00B540866834
:1019B00035438560456801268E40B54345604568DE
:1019C00096798E40B6B235434560C5684F00032610
:1019D000BE40B543C560D5794E00B540C6683543B5
:1019E000C560491C1029BFD3F0BDF0B50023002409
:1019F0004D07ED0E02FA05F3CE1000F1200555F863
:101A000026504E07F70E0F26BE40B543CF1000F10B
:101A1000200646F82750CE1000F1200555F8265034
:101A200045EA0304CE1000F1200545F82640F0BD3C
:101A3000418370470183704742694A404261704761
:101A400070B504460D462946204601F0E1F82946C6
:101A5000204600F05BFE2946204600F00BFF294699
:101A6000204600F03BFF2946204600F093FF294620
:101A7000204601F0A1F870BD10B5044607230122ED
:101A800021460848FEF7AEFF0648FFF707F800BFFB
:101A900002210448FEF772FF0028F9D00148FEF742
:101AA00069FF10BD002001402DE9F04107460C46BA
:101AB0000025002608E03846FFF7DEFF0544052034
:101AC00002F020FE701CC6B2A642F4DBB5FBF4F0B7
:101AD00080B2BDE8F081000010B52DED028B82B020
:101AE0001F20514908805148D0F8860000EE100AA6
:101AF000B8EE400A4E4880ED000A90ED000ADFED96
:101B00004D0A80EE201A80ED001A11EE104A204690
:101B1000FEF71BFD41EC180B444890F88A0053EC8B
:101B2000182B45A100904A4802F05CF9484B10225E
:101B30001421322000F07EF93C48D0F8810000EEFC
:101B4000100AB8EE400A3A4880ED000A90ED000A0B
:101B5000DFED380A80EE201A80ED001A11EE104AEF
:101B60002046FEF7F2FC41EC180B304890F8850057
:101B700053EC182B37A100903C4802F033F93B4B53
:101B800010222821322000F055F92848D0F8A00072
:101B900000EE100AB8EEC00A254880ED000A90ED6C
:101BA000000AF2EE040A80EE201A80ED001A11EE0F
:101BB000104A2046FEF7C9FC41EC180B53EC182BD9
:101BC0002BA1304802F00EF92E4B10223C2132207E
:101BD00000F030F9154890F87D000090134890F817
:101BE0007C30B0F87A2028A12E4802F0FBF82D4B6B
:101BF00010225021322000F01DF90C4890F880008E
:101C000000900A4890F87F3090F87E2026A1254861
:101C100002F0E8F8234B10226421322000F00AF988
:101C200002B0BDEC028B10BD9400002058020020D1
:101C30001C0000200050C3474C6F6E6769747564C8
:101C4000653A252E356620253163202020000000CE
:101C5000340300204C617469747564653A252E352F
:101C6000662025316320202000000000680300204A
:101C7000416C7469747564653A252E31666D202057
:101C8000202020009C0300205554432044617465AB
:101C90003A253034642F253032642F2530326420C9
:101CA00020200000000300205554432054696D6536
:101CB0003A253032643A253032643A253032642095
:101CC0002020000000BFFEE7D321074A1180911CAD
:101CD0000888088808884FF6FF7101EA0020911CE7
:101CE0000988084370470000FE1F006C70B5044669
:101CF00000250026094800880949098800FB01F6EB
:101D00000021084600F04AFC00F0B4FC00BF02E0ED
:101D1000044804806D1CB542FAD370BD9C000020BD
:101D20009E0000200020006C70B505460E4614464B
:101D30003146284600F0A0F803480088034908808F
:101D4000881C048070BD0000A0000020FE1F006CF5
:101D50002DE9FF4F074616461C46BB460C2C01D109
:101D600098460AE0102C01D1A04606E0182C02D1BA
:101D70004FF0300801E0BDE8FF8FA6F12000C6B2A9
:101D8000002548E00C2C07D106EB4600244901EB66
:101D9000800010F8059010E0102C05D1214800EBD0
:101DA000061010F8059008E0182C06D106EB460046
:101DB0001D4901EB001010F805904FF0000A24E0D7
:101DC00009F0010030B11948028838460199FFF73F
:101DD000ABFF05E01648028838460199FFF7A4FFDB
:101DE0004FEA6909781C87B2A7EB0B0104EBD472A8
:101DF000B1EB620F05D15F460198401C80B20190A3
:101E000006E00AF1010000F0FF0ABAF1080FD7DB83
:101E100000BF681CC5B24545B4DB00BFABE700009E
:101E2000B85300082C5800081C5E000894000020DD
:101E300096000020F0B506460F4615461C4611E0F8
:101E400022782B4639463046FFF782FF284605EBBD
:101E5000D07106EB61018EB206480088864200DB35
:101E600006E0641C2078202802DB20787E28E7DD4D
:101E700000BFF0BD9C00002030B504460D46294649
:101E8000204600F08BFB00F0F5FB02480088024979
:101E9000088030BD940000200020006C00B59FB089
:101EA0000121782001F028F80121084601F034F8DA
:101EB0004FF480601D9001208DF8780000208DF88F
:101EC0007A0002208DF8790001208DF87B001DA991
:101ED0007748FFF742FD4CF233701D9002208DF8D9
:101EE000780000208DF87A0003208DF87900012019
:101EF0008DF87B001DA96F48FFF72FFD4FF680700E
:101F00001D9002208DF8780000208DF87A000320C3
:101F10008DF8790001208DF87B001DA96648FFF738
:101F20001CFD04201D9002208DF8780000208DF803
:101F30007A0003208DF8790001208DF87B001DA91F
:101F40005E48FFF70AFD4FF480501D9002208DF887
:101F5000780000208DF87A0003208DF879000120A8
:101F60008DF87B001DA95548FFF7F7FC0C220021D6
:101F70005048FFF73AFD0C2201214E48FFF735FD8E
:101F80000C2204214B48FFF730FD0C220521494863
:101F9000FFF72BFD0C2208214648FFF726FD0C22F7
:101FA00009214448FFF721FD0C220A214148FFF78F
:101FB0001CFD0C220E213F48FFF717FD0C220F21BC
:101FC0003C48FFF712FD0C2207213B48FFF70DFDAF
:101FD0000C2208213848FFF708FD0C220921364859
:101FE000FFF703FD0C220A213348FFF7FEFC0C2209
:101FF0000B213148FFF7F9FC0C2211462E48FFF760
:10200000F4FC0C220D212C48FFF7EFFC0C220E21D2
:102010002948FFF7EAFC0C220F212748FFF7E5FCCF
:102020000C2202212548FFF7E0FC0C221146234830
:10203000FFF7DBFC0F200790002008903C20099060
:1020400000200A900B900C900D900820009000202A
:1020500001900720029000200390049005900690C4
:1020600006200E9000200F9010901020119000205C
:10207000129014901390159016904FF48050179072
:10208000002018904FF48040199000201A9007A863
:102090001B90CDF870D00EA8FFF7ECFB01210620B5
:1020A000FFF7CEFB322002F02DFB1FB000BD000079
:1020B00000140240000C02400010024000180240D0
:1020C0002DE9F04F05460E4617469846DDF824A048
:1020D0004FF0000B781B401C1FFA80FB344613E0C6
:1020E0002146284600F05AFA00F0C4FA4FF00009E1
:1020F00006E00748A0F800A009F101001FFA80F9E6
:10210000D945F6DB601C84B24445E9DDBDE8F08FBB
:102110000020006C10B5FFF7C1FEFFF7D5FDEB49BD
:1021200008800846008849F24131884223D0A12026
:10213000E7490880881C0088E4490880E448801C3E
:1021400000880880084600884FF6FF7101EA0020E9
:10215000DE490880DE48801C008809880843DB4986
:1021600008800846008845F26171884203D141F633
:102170006310D6490880D548008849F24131884229
:102180001CD1D448006820F00F004FF02041C1F866
:102190001C010846D0F81C0120F47060C1F81C0135
:1021A0000846D0F81C0140F00300C1F81C010846A5
:1021B000D0F81C0140F40070C1F81C01C34800882D
:1021C00049F2413188427DD1CF20C14908800020A9
:1021D000891C0880C120088030200880ED20891EDD
:1021E00008806420891C0880032008801220088051
:1021F00081200880E820891E08808520891C0880AD
:10220000102008807A200880CB20891E0880392081
:10221000891C08802C200880002008803420088039
:1022200002200880F720891E08802020891C088051
:10223000EA20891E08800020891C08800880C020B0
:10224000891E08801B20891C0880C120891E0880E7
:102250000120891C0880C520891E08803020891C27
:1022600008800880C720891E0880B720891C088044
:102270003620891E08804820891C08803A20891E43
:1022800008805520891C0880B120891E0880002004
:10229000891C08801A200880B620891E08800A2020
:1022A000891C0880A2200880F220891E0880002056
:1022B000891C08802620891E08800120891C08802E
:1022C000E02000E060E0891E08800F20891C088063
:1022D0002A20088028200880082008800E200880F6
:1022E0000820088054200880A92008804320088006
:1022F0000A2008800F2008800020088008800880BD
:102300000880E120891E08800020891C0880152093
:1023100008801720088007200880112008800620E8
:1023200008802B200880562008803C20088005204B
:102330000880102008800F2008803F200880088037
:102340000F2008802B20891E08800020891C08800F
:102350000880012008803F2008802A20891E0880EC
:102360000020891C088008800880EF200880112048
:10237000891E0880782002F0C5F929205449088078
:1023800001205549086098E05048008841F66311E3
:102390008842F8D1E2204E4908801D20891C08801F
:1023A0000220088004200880642002F0C7F9E020A1
:1023B000474908800120891C08800A2002F0A2F900
:1023C000E020434908800320891C08800C2002F08B
:1023D00099F901203E4908800A2002F093F9E6208D
:1023E0003B4908802F20891C0880FF200880088036
:1023F000B020891E08802020891C088000200880C9
:102400000320088040F21F3008800120088040F23D
:10241000DF10088000200880B420891E0880042076
:10242000891C088040F21F400880002008802E2070
:10243000088000200880088008800880B620891E57
:1024400008800220891C08804FF403700880002057
:102450000880172008801520088000200880088048
:10246000F020891E08800320891C08802920891EED
:102470000880D02008800020891C0880BE20891E8A
:1024800008800520891C0880FE2008800120088023
:102490000020088008800880B820891E088003205A
:1024A000891C088001200880BA20891E088001202C
:1024B000891C0880FF2001F031F8002000F068FE40
:1024C0004FF6FF70FFF712FC10BD000098000020CF
:1024D000FE1F006C1C0100A0A882424230B5841887
:1024E000641EA2B2CC18641EA3B2264C24786CBB26
:1024F000254C248841F66315AC4227D1234C24880F
:10250000A41A241AA0B2CC18641EA3B2204C2488AA
:10251000204D2C800412AD1C2C80C4B22C80841859
:10252000641EC4F30F242C808418641EE4B22C8033
:10253000194C2488AD1E2C800C12AD1C2C80CCB202
:102540002C801C122C80DCB22C8019E0104C2488CA
:10255000104D2C800412AD1C2C80C4B22C8014129F
:102560002C80D4B22C800C4C2488AD1E2C800C12F4
:10257000AD1C2C80CCB22C801C122C80DCB22C80A8
:1025800030BD00009A000020980000209C00002030
:10259000A2000020FE1F006CA40000202E4A12881A
:1025A00049F241339A4212D12C4A12882C4B1A809C
:1025B00002129B1C1A80C2B21A802A4A12889B1EE1
:1025C0001A800A129B1C1A80CAB21A8042E0224A60
:1025D000128841F663139A423CD1234A12788AB991
:1025E000224A1288521E121A90B21C4A12881C4BA0
:1025F0001A8000229B1C1A801A8002121A80C2B212
:102600001A8013E0154A1288154B1A8002129B1C7F
:102610001A80C2B21A80154A1288521EC2F30F22C3
:102620001A80124A1278521ED2B21A800D4A1288AB
:102630000B4B1A800A129B1C1A80CAB21A800C4AD1
:102640001288521EC2F30F221A80094A1278521EB3
:10265000D2B21A807047000098000020A20000202B
:10266000FE1F006CA40000209A0000209C000020A7
:102670009E00002002480088024908807047000040
:10268000A0000020FE1F006C024A1080921C1180E6
:1026900070470000FE1F006C1CB50121512000F0A6
:1026A0002BFC1820009001208DF8040000208DF8EC
:1026B000060003208DF8050001208DF8070069460B
:1026C0000E48FFF74AF918210C48FFF7B3F94FF409
:1026D0000070009069460A48FFF73FF94FF4007117
:1026E0000748FFF7A7F90220009069460548FFF761
:1026F00034F902210348FFF79DF91CBD0010024088
:10270000001802400000024000BFFEE72DE9FC5F18
:1027100007468A464FF00008CDF804A046A101986C
:10272000FDF76CFD0646F079303800F0FF0B032111
:10273000304600F085F80546FF2D04D07019694633
:1027400000F007FB78704FF0000970E03AA10198A3
:10275000FDF754FD0646002460E0042000EB8400F1
:10276000C1B2304600F06CF80546FF2D0AD0701952
:10277000694600F0EEFAC1B208EB880207F13E00AC
:10278000815400E04CE0052000EB8400C1B23046EB
:1027900000F056F80546FF2D0BD07019694600F081
:1027A000D8FAC1B208EB880207F13E00104441702C
:1027B00000E035E0062000EB8400C1B2304600F0B6
:1027C0003FF80546FF2D0BD07019694600F0C1FA9D
:1027D00081B208EB880207F13E001044418000E01E
:1027E0001EE0072000EB8400C1B2304600F028F85C
:1027F0000546FF2D0BD07019694600F0AAFAC1B248
:1028000008EB880207F13E001044017100E007E088
:1028100008F1010000F0FF08601CC4B2042C9CDB2E
:1028200000BF701C019009F1010000F0FF09D945BB
:102830008CDBBDE8FC9F0000244244475356000057
:102840000246134610E010782A2805D01078202878
:1028500002DB10787A2801DDFF20704710782C28E1
:1028600001D1481EC1B2521C0029ECD1D01AC0B20D
:10287000F3E70000F8B505460F4616A13846FDF708
:10288000BDFC064606213046FFF7DAFF0446FF2C62
:1028900005D03019694600F05CFA85F88B000721F5
:1028A0003046FFF7CDFF0446FF2C05D030196946AE
:1028B00000F04FFA85F88C0009213046FFF7C0FF81
:1028C0000446FF2C05D03019694600F042FAC5F8DD
:1028D000A000F8BD24474E47474100002DE9F843CA
:1028E0000546884629A14046FDF788FC0646022198
:1028F0003046FFF7A5FF0446FF2C05D03019694686
:1029000000F027FA85F89900002713E0F81CC1B2FF
:102910003046FFF795FF0446FF2C08D03019694672
:1029200000F017FAC1B205F18D00C15500E003E0D7
:10293000781CC7B20C2FE9DB00BF0F213046FFF730
:102940007FFF0446FF2C05D03019694600F001FADC
:10295000A5F89A0010213046FFF772FF0446FF2CBD
:1029600005D03019694600F0F4F9A5F89C00112152
:102970003046FFF765FF0446FF2C05D03019694645
:1029800000F0E7F9A5F89E00BDE8F88324474E471C
:10299000534100002DE9F0432DED028B81B0044638
:1029A000884682A14046FDF729FC074601213846AA
:1029B000FFF746FF0546FF2D23D07819694600F042
:1029C000C8F981469DF800100A2000F0B7F9B9FB5C
:1029D000F0F642F21070B6FBF0F0C1B27E20015565
:1029E0006420B6FBF0F06421B0FBF1F201FB1201B0
:1029F0007F2001556420B6FBF0F100FB11618020BF
:102A0000015503213846FFF71BFF0546FF2D42D035
:102A10007819694600F09DF906469DF80000801C73
:102A2000C1B20A2000F08AF9B6FBF0F044F8810F39
:102A30009DF80000801CC1B20A2000F07FF9B6FBAF
:102A4000F0F100FB116000EE100AB8EE408A05219B
:102A50000A2000F073F92168484300EE100AF8EEEE
:102A6000400A9DF80000C0F10500C1B20A2000F044
:102A700065F900EE100AB8EE400A20EE080A9FED54
:102A80004D1AC0EE011A30EEA10ABCEEC00A10EEDB
:102A9000100A44F8810904213846FFF7D1FE0546A3
:102AA000FF2D02D0785D84F8850005213846FFF7B8
:102AB000C7FE0546FF2D44D07819694600F049F954
:102AC00006469DF80000801CC1B20A2000F036F9CD
:102AD000B6FBF0F044F8860F9DF80000801CC1B2F0
:102AE0000A2000F02BF9B6FBF0F100FB116000EEBC
:102AF000100AB8EE400AB0EE408A05210A2000F024
:102B00001DF92168484300EE100AF8EE400A9DF8CE
:102B10000000C0F10500C1B20A2000F00FF900EE7C
:102B2000100AB8EE400A20EE080A9FED221AC0EE05
:102B3000011A30EEA10ABCEEC00A10EE100A44F8E9
:102B4000860906213846FFF77BFE0546FF2D02D099
:102B5000785D84F88A0009213846FFF771FE054642
:102B6000FF2D1ED07819694600F0F3F8064642F2B0
:102B70001070B6FBF0F0C1B27D2001556420B6FBA9
:102B8000F0F06421B0FBF1F201FB12017C20015551
:102B90006420B6FBF0F100FB116000F5FA60A4F8C8
:102BA0007A0001B0BDEC028BBDE8F08324474E52A1
:102BB0004D43000000007042F8B504460D4612A1D6
:102BC0002846FDF71BFB064607213046FFF738FE77
:102BD0000746FF2F16D0F019694600F0BAF8A4F89E
:102BE000A4009DF8000003280CDA9DF80000C0F155
:102BF0000300C1B20A2000F0A1F8B4F8A4104843C1
:102C0000A4F8A400F8BD000024474E565447000025
:102C10002DE9FC5F07468A464FF00008CDF804A076
:102C200044A10198FDF7EAFA0646F079303800F041
:102C3000FF0B03213046FFF703FE0546FF2D04D0AE
:102C40007019694600F085F838704FF000096CE0A3
:102C500038A10198FDF7D2FA064600245CE0042072
:102C600000EB8400C1B23046FFF7EAFD0546FF2DB8
:102C700009D07019694600F06CF8C1B208EB8802FF
:102C8000B81C815400E049E0052000EB8400C1B28B
:102C90003046FFF7D5FD0546FF2D0AD0701969466D
:102CA00000F057F8C1B208EB8802B81C104441701C
:102CB00000E033E0062000EB8400C1B23046FFF7AD
:102CC000BFFD0546FF2D0AD07019694600F041F896
:102CD00081B208EB8802B81C1044418000E01DE07E
:102CE000072000EB8400C1B23046FFF7A9FD05467E
:102CF000FF2D0AD07019694600F02BF8C1B208EB1D
:102D00008802B81C1044017100E007E008F10100DE
:102D100000F0FF08601CC4B2042CA0DB00BF701CD4
:102D2000019009F1010000F0FF09D94590DBBDE8F1
:102D3000FC9F0000244750475356000010B5024640
:102D4000012000E050430B00A1F10104E1B2F9D1F0
:102D500010BD2DE9F34F81B007463C46002000909E
:102D6000834681460026804628E020782D2802D11F
:102D700048F00208641C20782C2802D020782A28E9
:102D800000D11CE020782E2803D148F00108641CF3
:102D900009E02078392802DC2078302803DA4FF067
:102DA000000900260BE008F0010010B1701CC6B24B
:102DB00003E009F1010000F0FF09641CD5E700BF42
:102DC00008F0020000B17F1C00250EE0A9F101000F
:102DD000401BC1B20A20FFF7B1FF795D3039009A7C
:102DE00000FB01200090681CC5B24D45EEDB052EAE
:102DF00000DD05260298067000250EE0701E401BBF
:102E0000C1B20A20FFF79AFF09F101012944795C58
:102E1000303900FB01BB681CC5B2B542EEDB314660
:102E20000A20FFF78BFF009901FB00BA08F00200AF
:102E300008B1CAF1000A5046BDE8FE8F7047000095
:102E400070B5002100230F22C4781CB3174C2468EE
:102E500004F4E064C4F5E064C4F30721C1F10404A0
:102E6000E3B20A4144789C40E1B2847814402143A3
:102E70000C07210E0E4C05786155047804F01F05EF
:102E80000124AC4005786D11AD0005F1E025C5F8D1
:102E9000004109E0047804F01F050124AC40054D11
:102EA0000678761145F8264070BD00000CED00E074
:102EB00000E400E080E100E002490143024A1160C1
:102EC000704700000000FA050CED00E0BFF34F8FE3
:102ED0000648006800F4E06005490843001D034906
:102EE0000860BFF34F8F00BFFEE700000CED00E06D
:102EF0000000FA057047000029B1064A1268024333
:102F0000044B1A6004E0034A12688243014B1A60C2
:102F1000704700003038024029B1064A1268024367
:102F2000044B1A6004E0034A12688243014B1A60A2
:102F3000704700003838024029B1064A126802433F
:102F4000044B1A6004E0034A12688243014B1A6082
:102F5000704700004038024029B1064A1268024317
:102F6000044B1A6004E0034A12688243014B1A6062
:102F7000704700002038024029B1064A1268024317
:102F8000044B1A6004E0034A12688243014B1A6042
:102F9000704700004438024029B1064A12680243D3
:102FA000044B1A6004E0034A12688243014B1A6022
:102FB0007047000024380240F0B5002100220024B0
:102FC000022500260223324F3F6807F00C0121B191
:102FD000042905D0082937D105E02E4F076036E0D7
:102FE0002D4F076033E02A4F3F1F3F68C7F38056DD
:102FF000274F3F1F3F6807F03F036EB1264FB7FBD7
:10300000F3F7DFF88CC0ACF1040CDCF800C0CCF3B3
:10301000881C07FB0CF40CE01E4FB7FBF3F7DFF83E
:1030200070C0ACF1040CDCF800C0CCF3881C07FBCA
:103030000CF4174F3F1F3F68C7F301477F1C7D000B
:10304000B4FBF5F7076002E0124F076000BF00BF56
:103050000F4F3F6807F0F0010909104F7A5C0768CD
:10306000D74047600A4F3F6807F4E051890A0B4F89
:103070007A5C4768D7408760054F3F6807F4604136
:10308000490B064F7A5C4768D740C760F0BD000027
:10309000083802400024F40000127A00B200002038
:1030A000704700000CB50020019000903448006883
:1030B00040F480303249086000BF3148006800F4B5
:1030C000003000900198401C0190009818B90198B8
:1030D000B0F5A04FF1D12A48006800F4003010B1DB
:1030E0000120009001E0002000900098012846D1C6
:1030F00023484030006840F080502149403108604A
:103100002048006840F440401E4908601C480830D0
:1031100000681B49083108600846006840F4004018
:1031200008600846006840F4A05008601648091F6F
:103130000860081F006840F08070091F086000BF29
:103140000F48006800F000700028F9D040F20570C8
:103150000E4908600A480830006820F0030008495A
:10316000083108600846006840F00200086000BFAF
:1031700003480830006800F00C000828F8D10CBDA6
:10318000003802400070004008544007003C0240F4
:1031900010B504468CBB00203349087033480088C2
:1031A00049F24131884210D12C20314908802A202F
:1031B000304908802B2030490880F0202F490880B2
:1031C0004FF4A0702E49088049E02848008841F655
:1031D0006311884243D12C20254908802B202549A2
:1031E00008802A20244908804FF4F0702349088081
:1031F0004FF448702249088031E0FFE701201A4966
:1032000008701A48008849F24131884210D12C20B8
:10321000174908802A20174908802B201649088062
:103220004FF4A07015490880F0201549088016E079
:103230000E48008841F66311884210D12C200C49B9
:1032400008802A200B4908802B200B4908804FF466
:1032500048700A4908804FF4F0700949088000203E
:1032600000F010F810BD00009A0000209800002027
:10327000A0000020A2000020A40000209C0000204C
:103280009E00002070B505460024002630480078D6
:10329000012805D12F48008849F24131884208D0E1
:1032A0002B480078F0B92B48008841F6631188421A
:1032B00018D1082D15D2DFE805F00406080A0C0E17
:1032C000101206250DE007250BE0042509E0052571
:1032D00007E0012505E0002503E0032501E00225C4
:1032E00000BF00BF082D1CD2DFE805F00406090C62
:1032F0000F12151800BF14E044F0800411E044F0F0
:1033000040040EE044F0C0040BE044F0200408E068
:1033100044F0600405E044F0A00402E044F0E0045E
:1033200000BF00BF36260B48008849F24131884271
:1033300001D144F0080421463046FFF7A5F90648BC
:1033400003880648028800210846FFF7C7F870BDC9
:103350009A000020980000209E0000209C00002081
:1033600070B50025002604E0681C85B2052001F038
:10337000C9F91448008800F4004008B9642DF3DB53
:10338000642D19DA0F480088C0F30E0500240CE004
:103390000D48005D832800D109E00B48005D8428BA
:1033A00001D1032603E0601C84B2AC42F0DB00BF15
:1033B000AC4202D1022600E001260020014908802B
:1033C000304670BDAE000020000E002070B50546EE
:1033D000144C4AF2A01020804FF4806060800520D9
:1033E000207100206071A5710120E0712079617960
:1033F0004840A1794840E1794840207240F60D20CC
:10340000A4F809000B21204600F072F8C82001F052
:1034100079F9054951F8250001F062FFFFF7A0FF97
:1034200070BD0000700C0020EC6F000870B5054600
:103430000D4C4AF2A01020804FF4407060800E20A6
:10344000207165710120A071207961794840A179CE
:103450004840E07140F60D2020810A21204600F00E
:1034600047F8FFF77DFF70BD700C002070B5054672
:103470002E461E4C4FF47F4000EA152040EA1560AE
:103480004FF47F0101EA052108434FF07F4101EA33
:10349000056140EA01064AF2A01020804FF4E06086
:1034A00060806520207101206071C4F80660A07200
:1034B000207961794840D4F8061080EA1160C1F3A0
:1034C00007414840E188C1F307214840A1794840BD
:1034D000A17A4840E07240F60D20A0810E212046DE
:1034E00000F006F8FFF73CFF70BD0000700C0020F4
:1034F00010B5024600200CE000BF074B1B8803F00C
:103500004003002BF9D0135C034C241D2380431C83
:1035100098B28842F0DB10BD00480040BE21074A47
:1035200011800521921C1180114608800121118013
:10353000FF2111800021118011807047FE1F006C57
:10354000042808D14FF0E021096941F004014FF04F
:10355000E022116107E04FF0E021096921F0040148
:103560004FF0E022116170477047000010B5154818
:10357000006840F47000134908601348006840F088
:1035800001001149086000200F49083108600E4809
:1035900000680E4908400C4908600D48091D086084
:1035A000081F006820F48020091F086000200649D9
:1035B0000C310860FFF776FD4FF00060014980395B
:1035C000086010BD88ED00E000380240FFFFF6FE05
:1035D0001030002410B501210D4800F0A0F8A8B16A
:1035E00001210B4800F08CF80A480078401C09497A
:1035F000087008460078012808DB002008700120C8
:10360000054908700021024800F07DF810BD000057
:1036100000040040A6000020A70000207FB505465A
:103620000C4601210220FFF787FC0295ADF804400B
:103630000020ADF80C00ADF8060001A90D4800F01F
:103640008BF8012211460B4800F07AF81D208DF806
:10365000000000208DF8010001208DF802008DF897
:1036600003006846FFF7ECFB0021024800F04BF82E
:103670007FBD00000004004010B50121094800F0A2
:103680004EF868B10848008840F4004006490880B8
:103690000121044800F034F80021024800F033F81A
:1036A00010BD000000140040AE0000207FB50546AC
:1036B0000C4601212020FFF73FFC0195ADF80040AA
:1036C0000020ADF80800ADF8020069460B4800F094
:1036D00043F801221146094800F032F837208DF8EE
:1036E0000C0001208DF80D0002208DF80E00012045
:1036F0008DF80F0003A8FFF7A3FB7FBD0014004067
:10370000CA430282704721B1028842F0010202805E
:1037100004E002884FF6FE731A400280704730B50D
:103720000246002000230024158A05EA010395893A
:1037300005EA010413B10CB1012000E0002030BD06
:103740001AB183890B43838102E083898B43838190
:10375000704741627047000000220288184B98426F
:103760000ED0184B98420BD0B0F1804F08D0164BBA
:10377000984205D0154B984202D0154B984204D17F
:103780004FF68F731A404B881A43124B984207D05A
:10379000114B984204D04FF6FF431A400B891A434D
:1037A00002804B68C3620B880385054B984202D0A8
:1037B000044B984201D18B7A0386012383827047A0
:1037C00000000140000401400004004000080040E7
:1037D000000C0040001000400014004010B52DED1A
:1037E000088B46480088FCF7A3FE41EC190B0A2120
:1037F0000C20FEF759F900EE100AB8EE400A10EE60
:10380000104A2046FCF7A1FE41EC1B0B9FED3C0B40
:1038100053EC102BFCF7ABFD41EC1A0B53EC192BBE
:10382000FCF717FE41EC180BFCF7D2FE3649086096
:1038300008460068FCF789FE41EC190B3348D0EDCF
:10384000000AB2EE041A80EE810AF3EE090A30EEA5
:10385000600A10EE104A2046FCF777FE41EC1B0B85
:103860009FED2B0B53EC102BFCF781FD41EC1A0B59
:1038700053EC192BFCF7D4FC41EC180BFCF7A8FE19
:103880002549086025480068FCF75FFE41EC190BEC
:1038900021480068FCF759FE41EC1B0B9FED200B03
:1038A00053EC102BFCF763FD41EC1A0B53EC192B76
:1038B000FCF7B6FC41EC180BFCF78AFE1A490860CD
:1038C000084690ED000AB5EEC00AF1EE10FA03D8F2
:1038D0009FED160A80ED000A134890ED000ADFED17
:1038E000140AB4EEE00AF1EE10FA03DB9FED100AC1
:1038F00080ED000ABDEC088B10BD00002400002004
:103900005C8FC2F5285CF33F680000202000002097
:10391000613255302AA993BF700000206400002056
:103920003D0AD7A3700D8BC06C0000200000000082
:1039300000803B4510B540F22551164800F057F97C
:1039400000B3144800F00CFAC4B21348008800F425
:103950000040B8B910480088B0F5C87F13DA0021DC
:103960000E48FFF7F6FE0C48008818B901210B48F5
:10397000FFF7C9FE084801880088401C064A1080ED
:103980000748445405E00448008840F400400249D8
:10399000088010BD00500040AC0000200014004022
:1039A000E00A002010B540F225510A4800F01FF946
:1039B00070B1084800F0D4F9C1B20748D0F804212A
:1039C000D0F80401401C044BC3F80401184681548C
:1039D00010BD000000100140900F002010B540F213
:1039E0002551114800F003F901280BD10E4800F0D1
:1039F000B7F9C4B2204601F093FB40F225510A48C2
:103A000000F055F80821084800F0E4F801280AD130
:103A1000054800F0A5F9C4B2204601F081FB082159
:103A2000014800F03BF810BD0044004010B540F2E2
:103A30002551164800F0DBF800B3144800F090F967
:103A4000C4B21348008800F40040B8B91048008898
:103A5000B0F5C87F13DA00210E48FFF77AFE0C4854
:103A6000008818B901210B48FFF74DFE084801886E
:103A70000088401C064A10800748445405E004486A
:103A8000008840F400400249088010BD0048004012
:103A9000AE00002000140040000E002001F400726F
:103AA000B2F5007F00D100BFCA430280704710B555
:103AB0000022002340F66A14A14200D100BF0A127E
:103AC00001249440A3B2DC43048010BD21B182895B
:103AD00042F40052828104E082894DF6FF731A405D
:103AE0008281704710B504463248844208D10121D2
:103AF0001020FFF751FA00211020FFF74DFA57E090
:103B00002D48844209D101214804FFF725FA0021FC
:103B10004FF40030FFF720FA4AE02848844209D1E8
:103B200001218804FFF718FA00214FF48020FFF7E5
:103B300013FA3DE02248844209D10121C804FFF76D
:103B40000BFA00214FF40020FFF706FA30E01D4881
:103B5000844209D101210805FFF7FEF900214FF445
:103B60008010FFF7F9F923E01748844208D10121BA
:103B70002020FFF711FA00212020FFF70DFA17E0AF
:103B80001248844209D101218807FFF7E5F9002195
:103B90004FF08040FFF7E0F90AE00D48844207D17A
:103BA00001214005FFF7D8F900216005FFF7D4F99E
:103BB00010BD0000001001400044004000480040DB
:103BC000004C0040005000400014014000780040CC
:103BD000007C004002460020B1F5007F00D100BF0C
:103BE00013880B400BB1012000E00020704770B536
:103BF0000246002400230025002040F66A16B14248
:103C000000D100BFC1F3421501F01F03012606FADF
:103C100003F3012D02D19689334006E0022D02D133
:103C2000168A334001E0968A33400C12012606FAC8
:103C300004F41688344013B10CB1012000E00020D8
:103C400070BDF0B50346002400260025002040F694
:103C50006A17B94200D100BF1846C1F3421401F0FF
:103C60001F06012707FA06F5012C01D10C3004E0EC
:103C7000022C01D1103000E014301AB107682F4334
:103C8000076002E00768AF430760F0BD2DE9FF471A
:103C900005460E460024A14600BFA046B08900B1EB
:103CA00000BF2C8A24F44054F08804432C82AC8951
:103CB00041F20C608443B08831890843718908431C
:103CC0000443AC81AC8A24F44074B0890443AC82D0
:103CD0006846FFF771F92048854202D01F488542A7
:103CE00002D1DDF80C9001E0DDF80890A88900F41D
:103CF000004040B109EBC90000EB091031684900F0
:103D0000B0FBF1F707E009EBC90000EB09103168DF
:103D10008900B0FBF1F76420B7FBF0F00401200943
:103D2000642101FB1078A88900F4004040B13220E2
:103D300000EBC800B0FBF1F000F00700044308E01E
:103D4000322000EB08106421B0FBF1F000F00F000E
:103D500004432C81BDE8FF8700100140001401409E
:103D600001468888C0F308007047C1F308028280CA
:103D7000704700000AE000BF0649098801F04001D1
:103D80000029F9D00178034A9180401C017800296C
:103D9000F1D17047001001400BE000BF07490988CE
:103DA00001F040010029F9D00178044A121D118068
:103DB000401C01780029F0D1704700000044004009
:103DC00000BFFEE70FB4054B10B503A9044A0298E3
:103DD00000F0DEF810BC5DF814FB0000D5470008C9
:103DE000C40000200FB4084B10B504A902AA039820
:103DF00000F0CEF8044602A9002000F060FC204646
:103E000010BC5DF814FB0000BF46000802E008C8C3
:103E1000121F08C1002AFAD170477047002001E044
:103E200001C1121F002AFBD1704700002DE9FF5F7E
:103E3000DDE90220010DDDF838B0024318D044F668
:103E40001050A1F2FF3141430D140F98012820D0EA
:103E5000A5EB0B00401C5FEA000A4FF00004474E40
:103E6000DFF81C91A046504616D5CAF1000728E09D
:103E70000F98012443A2012808D0002100980F9B2D
:103E8000C0E90021C0E90243BDE8FF9F6FEA0B01D2
:103E9000F4E7CBF10000DEE7074612E0F80707D0B1
:103EA0002246334640464946FCF761FA8046894639
:103EB0002246334610461946FCF759FA04460E4688
:103EC0007F10002FEAD1DDE90201BAF1000F42466E
:103ED0004B4602DAFCF74BFA01E0FCF7BAFA04466B
:103EE0000E460022284BFCF75BFB03D84FF0FF3057
:103EF000014607E00022254B20463146FCF790F9A9
:103F0000FCF78EFC102409E0002C0ADB0A220023B7
:103F1000FCF790FB019B30321A55641E50EA0102F7
:103F2000F2D1641C019AC4F1110314440F9A012ABE
:103F300003D0012208430DD10AE0084304D0002039
:103F40004FF0110B0F9080E7A3EB0B056D1E0DE0FA
:103F50005B4504DD4FF0000205F1010504E003DAE2
:103F60004FF00002A5F10105002AECD000980F994E
:103F7000C0E90231C0E9004586E7000000002440A6
:103F80000000F03F300000000000F0430000E03F80
:103F90002DE9FF4F95B09B468946064600250FE266
:103FA000252877D100242746F84A0121059400E00E
:103FB000044316F8013F203B01FA03F01042F7D109
:103FC00030782A2811D06FF02F033078A0F130021A
:103FD000092A16D8059A44F0020402EB820203EB88
:103FE00042021044761C0590EFE759F8042B059225
:103FF000002A03DA504244F40054059044F00204CD
:10400000761C30782E2816D116F8010F44F00404DF
:104010002A280DD06FF02F023078A0F13003092B41
:1040200009D807EB870302EB4303C718761CF3E7B5
:1040300059F8047B761C30786C280FD006DC4C28AD
:1040400017D068280DD06A2814D104E0742810D045
:104050007A280FD10DE044F400140AE044F48014EF
:1040600001E044F440147278824202D104F58014D5
:10407000761C761C307866280BD013DC582877D055
:1040800009DC002875D04528F6D04628F4D047280A
:104090001AD19DE118E0632835D0642879D06528CD
:1040A00012D195E1702873D008DC6728F1D0692817
:1040B0006FD06E280DD06F2806D1B5E073282CD0B4
:1040C000752875D0782874D05A46179990476D1C7A
:1040D00075E1C4F30250022809D003280DD0D9F8A5
:1040E000001004280DD00D6009F1040967E1D9F82A
:1040F0000010EA17C1E90052F6E7D9F800100D8068
:10410000F2E70D70F0E719F8041B8DF8001000209D
:104110008DF80100EA46012003E059F804AB4FF0A6
:10412000FF3061074FF0000102D40DE008F10101FA
:104130008846B9420FDA8045F8DB1AF808100029E2
:10414000F4D108E008F1010188468142FADB1AF84F
:1041500008100029F6D105985B46A0EB0807214618
:104160003846179A00F094FA284400EB080507E057
:104170004DE029E10DE01AF8010B5A4617999047D6
:10418000B8F10108F7D25B4621463846179A13E189
:1041900042E00A220092C4F302524FF0000A022ABF
:1041A00008D059F804CB032A4FEAEC710AD00DE08D
:1041B00029E02AE009F1070121F00702F2E802C133
:1041C000914609E00FFA8CFC4FEAEC71042A03D106
:1041D0004FFA8CFC4FEAEC71002907DA0A460021FD
:1041E000DCF1000C61EB02012D2202E0220504D576
:1041F0002B228DF80420012203E0E20701D02022C7
:10420000F7E7904659E00A2102E010220DE0102164
:104210004FF0000A00910BE010224FF0000A44F02A
:1042200004040827009203E008224FF0000A0092DD
:10423000C4F30252022A05D059F804CB0021032A04
:1042400008D009E009F1070121F00702F2E802C1F4
:10425000914605E01FFA8CFC042A01D10CF0FF0CFA
:104260004FF00008220728D5702806D0009B83F065
:10427000100353EA0A0305D00EE040228DF8042013
:10428000012208E05CEA010206D030228DF8042009
:104290008DF8050002229046009B83F0080353EA44
:1042A0000A030AD15CEA010201D1620705D5302276
:1042B0008DF804204FF001087F1E582804D034A048
:1042C00003900EA802900DE036A0F9E75346604631
:1042D000009AFCF7AFF984460398825C0298401E6E
:1042E000029002705CEA0100F0D1029806A9081A57
:1042F00000F1200A600702D524F4803400E0012791
:10430000574502DDA7EB0A0000E0002000EB0A01A0
:10431000009005984144401A0590E00306D45B469E
:104320002146179A059800F0B3F90544002706E0E6
:1043300001A85A46C05D179990476D1C7F1C4745E0
:10434000F6DBE0030CD55B462146179A059800F092
:104350009FF9054404E030205A46179990476D1C98
:104360000099481E00900029F5DC08E002980299A7
:104370005A460078491C0291179990476D1CBAF172
:104380000001AAF1010AF1DC65E100000928010041
:1043900030313233343536373839616263646566BB
:1043A000000000003031323334353637383941427D
:1043B000434445460000000000F058F90544761CCF
:1043C000307800287FF4ECAD19B02846BDE8F08FB6
:1043D000620700D4062709F1070222F0070CFCE867
:1043E0000223E14603F000485FEA080C02D00FF216
:1043F000702C0DE05FEA045C02D50FF2682C07E038
:104400005FEAC47C02D00FF2602C01E0AFF2700CC6
:104410004FF0FF3823F00043CDF850C065280CD092
:1044200006DC452809D046281DD047283DD13DE06F
:10443000662818D067287ED138E00021112F01DBD3
:10444000112000E0781CCDE9000106A90EA8FFF7B5
:10445000EDFCDDE90F010E9A03910021009207F1B6
:10446000010A04914DE04FF000400097CDE90110A2
:1044700006A90EA8FFF7DAFCDDE90F0203920E9BF6
:1044800011990022DDF80CA00093049211B9791C57
:1044900000EB010AB7EB0A0004D4C0F1FF3007F1CA
:1044A000010A0490AAEB0700019044E0012F00DA12
:1044B00001270021112F01DD112000E03846CDE950
:1044C000000106A90EA8FFF7B1FCDDE90F010E9A65
:1044D0000391002104910092BA4621070CD403995C
:1044E000514500DA8A46BAF1010F05DD009AAAF1BA
:1044F0000101515C302908D0B84202DA10F1040FF2
:1045000006DA0121CDE9011015E0AAF10101E9E780
:10451000002805DC049901440491AAEB000102E0A3
:10452000411C514500DD8A460499401A401C019007
:104530004FF000400290200704D40198504501DB61
:10454000CDF8048000208DF84F0002980DF14F0740
:10455000B0F1004F25D02B200E9002984FF00208AA
:1045600000280CDA404202902D200E9007E00A212C
:104570000298FCF749F83031029007F8011DB8F1B4
:104580000001A8F10108F2DC02980028EFD1791EA1
:104590000E980870307800F0200040F0450007F8D1
:1045A000020D12A8C01B00F107081498007800B192
:1045B000012000EB0A01019801EBE07105984144EC
:1045C000401A401E0590E00306D45B462146179A28
:1045D000059800F05DF805441498007818B15A4623
:1045E000179990476D1CE00324D55B462146179A26
:1045F000059800F04DF805441CE00498002807DBFE
:10460000DDE90301884203DD0098405C179901E071
:10461000179930205A469047049805F10105401C2F
:1046200004900198401E019004D12E205A461799FB
:1046300090476D1CBAF10001AAF1010ADDDC05E02A
:1046400017F8010B5A46179990476D1CB8F10001F5
:10465000A8F10108F4DC5B462146179A0598ABE601
:104660002D0000002B000000200000002DE9F0418B
:10467000044600251E461746880404D405E0394642
:104680002020B0476D1C641EF9D52846BDE8F08196
:104690002DE9F041044600251E469046C80301D589
:1046A000302700E02027880404D505E0414638463D
:1046B000B0476D1C641EF9D52846BDE8F0810A6834
:1046C000531C0B601070704710B504466FF0040067
:1046D000FEF736FFE11704EB5171C1F3C701074A3A
:1046E00011701046007800EB4001C1EBC0104FF68E
:1046F000FF7101EAC0000249088010BDA800002037
:10470000AA00002070B504464FF4077094FBF0F047
:10471000C6B24FF4077094FBF0F100FB114085B274
:1047200005E04FF4077000F02FF8701EC6B2002E9F
:10473000F7D115B1284600F027F870BD0146114A9F
:1047400012784A434FF0E0235A6100229A611A46D8
:10475000126942F001021A6100BF4FF0E0221069B5
:1047600000F001021AB100F48032002AF5D04FF0B7
:10477000E022126922F001024FF0E0231A610022C8
:104780009A617047A80000200146114A12884A43E6
:104790004FF0E0235A6100229A611A46126942F0F2
:1047A00001021A6100BF4FF0E022106900F001021F
:1047B0001AB100F48032002AF5D04FF0E0221269DD
:1047C00022F001024FF0E0231A6100229A61704743
:1047D000AA00002000BF054A128802F04002002A09
:1047E000F9D0C2B2014B9A8070470000001001401E
:1047F0002DED108BADF5836DFF2600BF0A2700BF9E
:10480000FE4800684FF47A72B0FBF2F1481EB0F136
:10481000807F01D3012020E0481E4FF0E02250614C
:1048200050170F2200280ADA13074FEA1368F44BD7
:1048300000F00F0CACF1040C03F80C8005E013073A
:104840004FEA136CEF4B03F800C000BF00204FF09D
:10485000E022906107201061002008B100BFFEE750
:104860004FF4A060FEF728FBA820FFF72DFFFDF70F
:1048700013FFFDF74FFC4FF4165000F069FC4FF4A6
:10488000165000F0C7FC4FF4164000F029FDFBF76E
:10489000F1FFDDA0FFF76EFA42F2CF0141F287305F
:1048A000FEF7BCFE0520FEF7C1FDA8B100BF4FF426
:1048B000165000F015FD0320FEF788FD4FF416405A
:1048C00000F00EFDD548FEF7D1FD06460520FEF7A7
:1048D000ADFD08B1002EEAD1D1A3182250211E202F
:1048E000FDF7A8FA00BFFCF759FA0028FBD1FCF746
:1048F0002BFCFCF7E1FC4FF4FC60CE4908804FF63E
:10490000FF706423FA22502100901E20FDF7D8FB8F
:10491000C9A3102278211E20FDF78CFA78E3C8483D
:10492000008800F40040D8B1C5480088C0F30E05E7
:10493000002405E0C348005DC3490855601C84B2EB
:10494000AC42F7DB0020BE490880BF490855BF488C
:10495000FDF776F8FDF7C0F8BB49BDA0FFF732FAC6
:10496000BD4890ED000AB5EEC00AF1EE10FA08D08D
:104970000A2F06D1B94BBA4ABA49BBA0FCF79CF939
:1049800001270020AB4908800A211120FDF78CF88F
:10499000B64908800A210846FDF786F8B449088020
:1049A000B2480088FBF7C4FD41EC190B0A21084608
:1049B000FDF77AF88046FBF7BBFD41EC1B0B9FED42
:1049C000AD0B53EC102BFBF7D2FC41EC1A0B53EC64
:1049D000192BFBF73EFD41EC180BFBF7F9FDA7493E
:1049E0000860A2480088FBF7A3FD41EC190B0A21DF
:1049F0000620FDF759F800EE100AB8EE400A10EE56
:104A0000108A4046FBF7A1FD41EC1B0B9FED990B73
:104A100053EC102BFBF7ABFC41EC1A0B53EC192BAE
:104A2000FBF717FD41EC180BFBF7D2FD944908602A
:104A300008460068FBF789FD41EC1A0B9FED910BCE
:104A400053EC102BFBF793FC41EC190B9FED8F0BF4
:104A500053EC102BFBF7E4FB41EC180BFBF7B8FD14
:104A60008C49086008460068FBF76FFD41EC180BA5
:104A70009FED890B53EC102BFBF77AFD04D89FEDCB
:104A8000880A844880ED000A82480068FBF75DFDD3
:104A900041EC180B9FED830B53EC102BFBF780FDC3
:104AA00004D8B2EE0C0A7B4880ED000A7948006811
:104AB000FBF74BFD41EC180B53EC182B7BA104A822
:104AC000FFF790F904AB102296213220FDF7B2F9DE
:104AD00070480068FBF739FD41EC180B9FED760B31
:104AE00053EC102BFBF744FD0CD96A480068FBF728
:104AF0002CFD41EC180B9FED720B53EC102BFBF7C8
:104B00004FFD19D84FF478404A4908806EA310220F
:104B100096218C20FDF78EF901206E490860C8208F
:104B2000FFF7F0FD4FF6FF70A723DC2296210090DF
:104B30008C20FDF7C5FA05E067A3102296218C2092
:104B4000FDF778F900203B4908804FF4807105A8F3
:104B5000FBF73DFB4FF48071C5A8FBF738FB4D48D0
:104B60000068FBF7F2FC41EC180B53EC182B5BA12F
:104B700005A8FFF737F905A9C5A8FBF733FBC5A9B9
:104B800057A0FFF71FF9C5A937A0FBF7A3FFFCF754
:104B900065FD58480068FBF7D8FC41EC180B53EC56
:104BA000182B55A104A8FFF71DF904AB1022AA2168
:104BB0003220FDF73FF94FF4807105A8FBF707FBA2
:104BC0004FF4807185A8FBF702FB4A480068FBF7A9
:104BD000BCFC41EC180B53EC182B40A105A8FFF7C7
:104BE00001F905A985A8FBF7FDFA46A285A91EA033
:104BF000FBF7E8FF464890ED000A8BE074000020C8
:104C000018ED00E000E400E0696E69742073746DD3
:104C100033324C20434F4D31200D0A00A086010055
:104C20005761696E74696E6720496E69742E2E2E05
:104C3000000000009400002044617465A3BA0000E5
:104C4000AE000020000E0020C80000205802002006
:104C50000D0A25730D0A00001C0000209C03002093
:104C600068030020340300203332000024000020B9
:104C70000E0000205C8FC2F5285CF33F300000205E
:104C80002C00002087A757CA320417C08195438B98
:104C90006CA7304028000020000000000000000049
:104CA000000000000000000000002C4050483A25A1
:104CB0002E326620000000000000000000001840B6
:104CC0000000000000002340215741524E494E474A
:104CD000210000009C0243422000000025660000E5
:104CE00073656E6464617461203D202573200D0A34
:104CF000000000005000002045433A2566206D5317
:104D00002F636D00546172676574454300000000B5
:104D100038000020BF4880ED000ABF4890ED000A2F
:104D2000F2EE040A80EE201A11EE108A4046FBF7DC
:104D30000CFC41EC1B0B9FEDB90B53EC102BFBF75C
:104D400010FB41EC1A0B9FEDB70B53EC102BFBF74C
:104D50000EFB41EC190B9FEDB50B53EC102BFBF741
:104D60005FFA41EC180BFBF733FCB2490860A94825
:104D700090ED000A0846D0ED000A80EE201A11EEF0
:104D8000108A4046FBF7E1FBAB4A03C2A14890ED15
:104D9000000AB5EEC00AF1EE10FA10DB0068FBF76E
:104DA000D4FB41EC180B9FEDA50B53EC102BFBF73C
:104DB000DFFB04D21FED480B9F4880ED000BA1489C
:104DC0000068FBF7C2FB41EC190B9B4890ED000B10
:104DD00053EC102B9FED9C0B51EC100BFBF7C7FA1B
:104DE000CDE90201944890ED000B53EC102B9FEDA0
:104DF000980B51EC100BFBF7BAFA41EC1E0B8E48E6
:104E000090ED000B53EC102B51EC1E0BFBF7AFFA9F
:104E100041EC1D0B884890ED000B53EC102B9FEDDF
:104E20008E0B51EC100BFBF7A2FA41EC1F0B8248E2
:104E300090ED000B53EC102B51EC1F0BFBF797FA86
:104E400041EC1E0B7C4890ED000B53EC102B51EC09
:104E50001E0BFBF78CFA53EC1D2BCDE900019DEDE9
:104E6000000B51EC100BFBF77CFA41EC1C0B9DED99
:104E7000020B53EC102BFBF7D3F941EC1B0B9FED0E
:104E8000780B53EC102BFBF772FA41EC1A0B53EC36
:104E9000192BFBF76CFA41EC180BFBF799FB7249E5
:104EA0000860084690ED000AB5EEC00AF1EE10FA6F
:104EB00003D81FED850A80ED000A6B4890ED000ACB
:104EC000DFED6A0AB4EEE00AF1EE10FA03DD9FEDC1
:104ED000670A80ED000A64480068FBF736FB41EC86
:104EE000180B53EC182B62A104A8FEF77BFF04AB50
:104EF0001022BE213220FCF79DFF4FF4807105A8DF
:104F0000FBF765F94FF4807145A8FBF760F9564847
:104F10000068FBF71AFB41EC180B53EC182BAFF2AF
:104F2000442105A8FEF75EFF05A945A8FBF75AF93D
:104F300052A245A9AFF2D020FBF744FEFEF74EFC8B
:104F40004F480068FBF701FB41EC180B53EC182BA2
:104F50004CA104A8FEF746FF04AB1022D221322058
:104F6000FCF768FF4A4801884AA0FEF72BFF4C482F
:104F70000068FBF7EAFA41EC180B53EC182B49A038
:104F8000FEF720FF4A480068FBF7DFFA41EC180BF8
:104F900053EC182B47A0FEF715FF49480068FBF7B4
:104FA000D4FA41EC180B53EC182B46A0FEF70AFF7D
:104FB00048480068FBF7C9FA41EC180B53EC182B72
:104FC00045A0FEF7FFFE48480068FBF7BEFA41EC3B
:104FD000180B53EC182B45A0FEF7F4FE2848006888
:104FE000FBF7B3FA41EC180B53EC182B43A0FEF778
:104FF000E9FE23480068FBF7A8FA41EC180B53ECD4
:10500000182B42A0FEF7DEFE08214448FCF714FDF1
:1050100085E400005C00002020000020000000006B
:10502000000039407B14AE47E17A943F0000000055
:105030000000F03F54000020100000209A99999938
:105040009999B93F6000002085EB51B81ECB8A408A
:10505000EC51B81E85FB6F403D0AD7A370AD604090
:10506000000000000000E03F580000200000AF44B6
:105070005444533A25662070706D00005444530028
:105080006C00002054553A2566204E54550000000F
:105090002400002041444331373A25640D0A0000C2
:1050A0003000002056A3BA25662052480D0A0000A1
:1050B000280000205048A3BA25662043200D0A008E
:1050C0002C00002050485F474554A3BA2566205263
:1050D000480D0A00500000204543A3BA2566206D04
:1050E000532F636D0D0A00003800002045435F47D1
:1050F0004554A3BA25662052480D0A00544453A3D0
:10510000BA25662070706D0D0A0000005455A3BAD0
:105110002566204E54550D0A000000000010024084
:105120000A49D1F80411FF2904D90021074AC2F81D
:1051300004110AE00549D1F80421D1F80411491CF1
:10514000024BC3F804111946885470479810002088
:1051500010B588B0044601210846FDF7CDFE0121B7
:105160001020FDF709FF072209212848FCF73DFC24
:1051700007220A212548FCF738FC4FF400700690FE
:1051800002208DF81C0001208DF81D0000208DF8F4
:105190001E0001208DF81F0006A91C48FCF7DDFB4E
:1051A0004FF48060069002208DF81C0006A9174875
:1051B000FCF7D3FB25208DF8040003208DF80500B3
:1051C0008DF8060001208DF8070001A8FDF738FED4
:1051D00002940020ADF80C00ADF80E00ADF8100000
:1051E000ADF814000C20ADF8120002A90848FEF733
:1051F0004DFD012240F225510548FEF722FD012117
:105200000348FEF763FC08B010BD00000000024038
:105210000010014010B588B0044601210846FDF792
:105220006BFE01214804FDF787FE072202212A4870
:10523000FCF7DBFB072203212748FCF7D6FB042001
:10524000069002208DF81C008DF81D0000208DF8BE
:105250001E0006A92048FCF780FB082006900220CB
:105260008DF81C0001208DF81F0006A91A48FCF7D4
:1052700074FB26208DF8040003208DF80500022021
:105280008DF8060001208DF8070001A8FDF7D8FD74
:1052900002940020ADF80C00ADF80E00ADF810003F
:1052A000ADF814000C20ADF8120002A90B48FEF76F
:1052B000EDFC012240F225510848FEF7C2FC012115
:1052C0000648FEF703FC012240F225510348FEF791
:1052D000B8FC08B010BD00000000024000440040CF
:1052E00010B588B0044601210220FDF705FE01211A
:1052F0008804FDF721FE2C48FEF7F4FB07220B2162
:105300002A48FCF772FB07220A212848FCF76DFBAC
:105310004FF44060059002208DF818008DF81900B8
:1053200000208DF81A0001208DF81B0005A91F48E8
:10533000FCF713FB01940020ADF80800ADF80A005B
:10534000ADF80C00ADF810000C20ADF80E0001A96E
:105350001548FEF79BFC01211348FEF7B7FB01221D
:1053600040F225511048FEF76CFC27208DF81C00F8
:1053700002208DF81D0003208DF81E0001208DF8FD
:105380001F0007A8FDF75CFD42F2CF0140F2E730B5
:10539000FEF78CF900200649088000210548FEF739
:1053A000B2F908B010BD00000048004000040240FF
:1053B000AE000020001400400000000000000000CB
:1053C00000000000000004040404040400040000C1
:1053D00000140A0A0000000000000000000014147D
:1053E0003F140A3F0A0A000000041E1505060C14AB
:1053F000150F0400000012150D0A142C2A120000CB
:105400000000040A0A1E15150936000000020201F8
:105410000000000000000000002010080808080834
:105420000810200000020408080808080804020008
:1054300000000004150E0E15040000000000040416
:10544000041F04040400000000000000000000002D
:105450000002020100000000001F00000000000028
:10546000000000000000000000020000001008081A
:10547000080404020202010000000E1111111111B2
:10548000110E00000000040604040404040E0000D1
:1054900000000E1111080402011F000000000E118F
:1054A000100C1010110E00000000080C0A0A091E52
:1054B0000818000000001F01010F1010110E00005D
:1054C00000000E09010F1111110E000000001F094C
:1054D000080404040404000000000E11110E111150
:1054E000110E000000000E1111111E10120E00000E
:1054F00000000000040000000004000000000000A4
:105500000004000000040400002010080402040845
:1055100010200000000000001F00001F000000001D
:1055200000020408102010080402000000000E1100
:10553000110804040004000000000E111915151DC7
:10554000011E0000000004040C0A0A1E12330000B1
:1055500000000F12120E1212120F000000001E1196
:1055600001010101110E000000000F1212121212AF
:10557000120F000000001F120A0E0A02121F000084
:1055800000001F120A0E0A020207000000001C128F
:1055900001013911120C000000003312121E121208
:1055A0001233000000001F0404040404041F000060
:1055B00000003E0808080808080907000000371224
:1055C0000A060A0A1237000000000702020202025D
:1055D000223F000000001B1B1B1B151515150000AA
:1055E00000003B1216161A1A1217000000000E11C6
:1055F00011111111110E000000000F12120E020203
:105600000207000000000E1111111117190E1800E9
:1056100000000F12120E0A121237000000001E11B5
:1056200001060810110F000000001F1504040404F7
:10563000040E00000000331212121212120C0000AD
:1056400000003312120A0A0C0404000000001515B1
:10565000150E0A0A0A0A000000001B0A0A04040ABE
:105660000A1B000000001B0A0A040404040E0000C8
:1056700000001F0908040402121F0000001C04049B
:105680000404040404041C000002020204040808C8
:1056900008100000000E08080808080808080E0096
:1056A00000040A00000000000000000000000000EC
:1056B000000000000000003F0004000000000000A7
:1056C0000000000000000000000C121C123C000052
:1056D00000000302020E1212120E00000000000071
:1056E000001C1202021C000000001810101C1212F4
:1056F000123C000000000000000C121E021C000002
:1057000000003804041E0404041E00000000000011
:10571000003C120C021E221C00000302020E121298
:10572000123700000000040000060404040E00000C
:1057300000000800000C0808080808070000030221
:10574000023A0A0E123700000000070404040404A1
:10575000041F000000000000000F151515150000C3
:1057600000000000000F12121237000000000000BD
:10577000000C1212120C000000000000000F1212A8
:10578000120E020700000000001C1212121C10383A
:1057900000000000001B06020207000000000000DD
:1057A000001E020C101E000000000004040E040481
:1057B0000418000000000000001B1212123C000040
:1057C000000000000037120A0C0400000000000076
:1057D0000015150E0A0A000000000000001B0A0454
:1057E0000A1B0000000000000037120A0C0404032A
:1057F00000000000001E0804041E00000018080835
:105800000804080808081800080808080808080814
:105810000808080800060404040804040404060038
:105820000225180000000000000000000000000039
:105830000000000000000000000000000000000860
:1058400008080808080800001818000000486C2420
:105850001200000000000000000000000000002412
:1058600024247F1212127F12121200000000081C62
:105870002A2A0A0C1828282A2A1C080800000022B4
:10588000251515152A585454542200000000000C08
:105890001212120A76252911916E000000060604E4
:1058A0000300000000000000000000000040201085
:1058B000100808080808081010204000000204081A
:1058C000081010101010100808040200000000005A
:1058D00008086B1C1C6B080800000000000000009A
:1058E000080808087F0808080800000000000000F9
:1058F0000000000000000000060604030000000095
:1059000000000000FE000000000000000000000099
:1059100000000000000000000606000000008040BB
:1059200040202010100808040402020000000018A3
:105930002442424242424242241800000000000831
:105940000E08080808080808083E00000000003C8F
:105950004242422020100804427E00000000003C29
:105960004242201820404042221C0000000000203B
:105970003028242422227E20207800000000007E8F
:105980000202021A26404042221C00000000003899
:105990002402021A26424242241800000000007E1F
:1059A0002222101008080808080800000000003C27
:1059B0004242422418244242423C000000000018A7
:1059C0002442424264584040241C00000000000071
:1059D0000000181800000000181800000000000067
:1059E000000000080000000000080804000000405B
:1059F00020100804020408102040000000000000ED
:105A000000007F0000007F00000000000000000296
:105A10000408102040201008040200000000003C90
:105A20004242464020101000181800000000001CE0
:105A3000225A555555552D42221C000000000008E1
:105A400008181414243C224242E700000000001F02
:105A50002222221E22424242221F00000000007C1D
:105A60004242010101010142221C00000000001F0E
:105A70002242424242424242221F00000000003FB6
:105A80004212121E12120242423F00000000003F6A
:105A90004212121E12120202020700000000003C15
:105AA0002222010101712122221C0000000000E7D6
:105AB000424242427E42424242E700000000003E33
:105AC0000808080808080808083E00000000007CD4
:105AD00010101010101010101010110F000000778F
